{
  "_format": "hh-sol-artifact-1",
  "contractName": "MockEUR",
  "sourceName": "contracts/MockEUR.sol",
  "abi": [
    {
      "inputs": [],
      "stateMutability": "nonpayable",
      "type": "constructor"
    },
    {
      "inputs": [
        {
          "internalType": "address",
          "name": "spender",
          "type": "address"
        },
        {
          "internalType": "uint256",
          "name": "allowance",
          "type": "uint256"
        },
        {
          "internalType": "uint256",
          "name": "needed",
          "type": "uint256"
        }
      ],
      "name": "ERC20InsufficientAllowance",
      "type": "error"
    },
    {
      "inputs": [
        {
          "internalType": "address",
          "name": "sender",
          "type": "address"
        },
        {
          "internalType": "uint256",
          "name": "balance",
          "type": "uint256"
        },
        {
          "internalType": "uint256",
          "name": "needed",
          "type": "uint256"
        }
      ],
      "name": "ERC20InsufficientBalance",
      "type": "error"
    },
    {
      "inputs": [
        {
          "internalType": "address",
          "name": "approver",
          "type": "address"
        }
      ],
      "name": "ERC20InvalidApprover",
      "type": "error"
    },
    {
      "inputs": [
        {
          "internalType": "address",
          "name": "receiver",
          "type": "address"
        }
      ],
      "name": "ERC20InvalidReceiver",
      "type": "error"
    },
    {
      "inputs": [
        {
          "internalType": "address",
          "name": "sender",
          "type": "address"
        }
      ],
      "name": "ERC20InvalidSender",
      "type": "error"
    },
    {
      "inputs": [
        {
          "internalType": "address",
          "name": "spender",
          "type": "address"
        }
      ],
      "name": "ERC20InvalidSpender",
      "type": "error"
    },
    {
      "anonymous": false,
      "inputs": [
        {
          "indexed": true,
          "internalType": "address",
          "name": "owner",
          "type": "address"
        },
        {
          "indexed": true,
          "internalType": "address",
          "name": "spender",
          "type": "address"
        },
        {
          "indexed": false,
          "internalType": "uint256",
          "name": "value",
          "type": "uint256"
        }
      ],
      "name": "Approval",
      "type": "event"
    },
    {
      "anonymous": false,
      "inputs": [
        {
          "indexed": true,
          "internalType": "address",
          "name": "from",
          "type": "address"
        },
        {
          "indexed": true,
          "internalType": "address",
          "name": "to",
          "type": "address"
        },
        {
          "indexed": false,
          "internalType": "uint256",
          "name": "value",
          "type": "uint256"
        }
      ],
      "name": "Transfer",
      "type": "event"
    },
    {
      "inputs": [],
      "name": "FAUCET_AMOUNT",
      "outputs": [
        {
          "internalType": "uint256",
          "name": "",
          "type": "uint256"
        }
      ],
      "stateMutability": "view",
      "type": "function"
    },
    {
      "inputs": [],
      "name": "FAUCET_COOLDOWN",
      "outputs": [
        {
          "internalType": "uint256",
          "name": "",
          "type": "uint256"
        }
      ],
      "stateMutability": "view",
      "type": "function"
    },
    {
      "inputs": [
        {
          "internalType": "address",
          "name": "owner",
          "type": "address"
        },
        {
          "internalType": "address",
          "name": "spender",
          "type": "address"
        }
      ],
      "name": "allowance",
      "outputs": [
        {
          "internalType": "uint256",
          "name": "",
          "type": "uint256"
        }
      ],
      "stateMutability": "view",
      "type": "function"
    },
    {
      "inputs": [
        {
          "internalType": "address",
          "name": "spender",
          "type": "address"
        },
        {
          "internalType": "uint256",
          "name": "value",
          "type": "uint256"
        }
      ],
      "name": "approve",
      "outputs": [
        {
          "internalType": "bool",
          "name": "",
          "type": "bool"
        }
      ],
      "stateMutability": "nonpayable",
      "type": "function"
    },
    {
      "inputs": [
        {
          "internalType": "address",
          "name": "account",
          "type": "address"
        }
      ],
      "name": "balanceOf",
      "outputs": [
        {
          "internalType": "uint256",
          "name": "",
          "type": "uint256"
        }
      ],
      "stateMutability": "view",
      "type": "function"
    },
    {
      "inputs": [],
      "name": "decimals",
      "outputs": [
        {
          "internalType": "uint8",
          "name": "",
          "type": "uint8"
        }
      ],
      "stateMutability": "pure",
      "type": "function"
    },
    {
      "inputs": [],
      "name": "faucet",
      "outputs": [],
      "stateMutability": "nonpayable",
      "type": "function"
    },
    {
      "inputs": [
        {
          "internalType": "address",
          "name": "",
          "type": "address"
        }
      ],
      "name": "lastFaucetUse",
      "outputs": [
        {
          "internalType": "uint256",
          "name": "",
          "type": "uint256"
        }
      ],
      "stateMutability": "view",
      "type": "function"
    },
    {
      "inputs": [
        {
          "internalType": "address",
          "name": "to",
          "type": "address"
        },
        {
          "internalType": "uint256",
          "name": "amount",
          "type": "uint256"
        }
      ],
      "name": "mint",
      "outputs": [],
      "stateMutability": "nonpayable",
      "type": "function"
    },
    {
      "inputs": [],
      "name": "name",
      "outputs": [
        {
          "internalType": "string",
          "name": "",
          "type": "string"
        }
      ],
      "stateMutability": "view",
      "type": "function"
    },
    {
      "inputs": [],
      "name": "symbol",
      "outputs": [
        {
          "internalType": "string",
          "name": "",
          "type": "string"
        }
      ],
      "stateMutability": "view",
      "type": "function"
    },
    {
      "inputs": [],
      "name": "totalSupply",
      "outputs": [
        {
          "internalType": "uint256",
          "name": "",
          "type": "uint256"
        }
      ],
      "stateMutability": "view",
      "type": "function"
    },
    {
      "inputs": [
        {
          "internalType": "address",
          "name": "to",
          "type": "address"
        },
        {
          "internalType": "uint256",
          "name": "value",
          "type": "uint256"
        }
      ],
      "name": "transfer",
      "outputs": [
        {
          "internalType": "bool",
          "name": "",
          "type": "bool"
        }
      ],
      "stateMutability": "nonpayable",
      "type": "function"
    },
    {
      "inputs": [
        {
          "internalType": "address",
          "name": "from",
          "type": "address"
        },
        {
          "internalType": "address",
          "name": "to",
          "type": "address"
        },
        {
          "internalType": "uint256",
          "name": "value",
          "type": "uint256"
        }
      ],
      "name": "transferFrom",
      "outputs": [
        {
          "internalType": "bool",
          "name": "",
          "type": "bool"
        }
      ],
      "stateMutability": "nonpayable",
      "type": "function"
    }
  ],
  "bytecode": "0x60806040523480156200001157600080fd5b50604051806040016040528060098152602001684d6f636b204575726f60b81b8152506040518060400160405280600381526020016222aaa960e91b8152508160039081620000619190620002d1565b506004620000708282620002d1565b505050620000aa3362000088620000b060201b60201c565b6200009590600a620004b2565b620000a490620f4240620004ca565b620000b5565b620004fa565b601290565b6001600160a01b038216620000e55760405163ec442f0560e01b8152600060048201526024015b60405180910390fd5b620000f360008383620000f7565b5050565b6001600160a01b038316620001265780600260008282546200011a9190620004e4565b909155506200019a9050565b6001600160a01b038316600090815260208190526040902054818110156200017b5760405163391434e360e21b81526001600160a01b03851660048201526024810182905260448101839052606401620000dc565b6001600160a01b03841660009081526020819052604090209082900390555b6001600160a01b038216620001b857600280548290039055620001d7565b6001600160a01b03821660009081526020819052604090208054820190555b816001600160a01b0316836001600160a01b03167fddf252ad1be2c89b69c2b068fc378daa952ba7f163c4a11628f55a4df523b3ef836040516200021d91815260200190565b60405180910390a3505050565b634e487b7160e01b600052604160045260246000fd5b600181811c908216806200025557607f821691505b6020821081036200027657634e487b7160e01b600052602260045260246000fd5b50919050565b601f821115620002cc576000816000526020600020601f850160051c81016020861015620002a75750805b601f850160051c820191505b81811015620002c857828155600101620002b3565b5050505b505050565b81516001600160401b03811115620002ed57620002ed6200022a565b6200030581620002fe845462000240565b846200027c565b602080601f8311600181146200033d5760008415620003245750858301515b600019600386901b1c1916600185901b178555620002c8565b600085815260208120601f198616915b828110156200036e578886015182559484019460019091019084016200034d565b50858210156200038d5787850151600019600388901b60f8161c191681555b5050505050600190811b01905550565b634e487b7160e01b600052601160045260246000fd5b600181815b80851115620003f4578160001904821115620003d857620003d86200039d565b80851615620003e657918102915b93841c9390800290620003b8565b509250929050565b6000826200040d57506001620004ac565b816200041c57506000620004ac565b8160018114620004355760028114620004405762000460565b6001915050620004ac565b60ff8411156200045457620004546200039d565b50506001821b620004ac565b5060208310610133831016604e8410600b841016171562000485575081810a620004ac565b620004918383620003b3565b8060001904821115620004a857620004a86200039d565b0290505b92915050565b6000620004c360ff841683620003fc565b9392505050565b8082028115828204841417620004ac57620004ac6200039d565b80820180821115620004ac57620004ac6200039d565b6108a8806200050a6000396000f3fe608060405234801561001057600080fd5b50600436106100ea5760003560e01c8063766976401161008c578063a9059cbb11610066578063a9059cbb146101c4578063dd62ed3e146101d7578063de5f72fd14610210578063eee96fef1461021857600080fd5b806376697640146101a25780637d1d5d19146101b257806395d89b41146101bc57600080fd5b806323b872dd116100c857806323b872dd14610142578063313ce5671461015557806340c10f191461016457806370a082311461017957600080fd5b806306fdde03146100ef578063095ea7b31461010d57806318160ddd14610130575b600080fd5b6100f7610238565b60405161010491906106f1565b60405180910390f35b61012061011b36600461075c565b6102ca565b6040519015158152602001610104565b6002545b604051908152602001610104565b610120610150366004610786565b6102e4565b60405160128152602001610104565b61017761017236600461075c565b610308565b005b6101346101873660046107c2565b6001600160a01b031660009081526020819052604090205490565b61013468056bc75e2d6310000081565b6101346201518081565b6100f7610316565b6101206101d236600461075c565b610325565b6101346101e53660046107e4565b6001600160a01b03918216600090815260016020908152604080832093909416825291909152205490565b610177610333565b6101346102263660046107c2565b60056020526000908152604090205481565b60606003805461024790610817565b80601f016020809104026020016040519081016040528092919081815260200182805461027390610817565b80156102c05780601f10610295576101008083540402835291602001916102c0565b820191906000526020600020905b8154815290600101906020018083116102a357829003601f168201915b5050505050905090565b6000336102d88185856103cc565b60019150505b92915050565b6000336102f28582856103de565b6102fd85858561045d565b506001949350505050565b61031282826104bc565b5050565b60606004805461024790610817565b6000336102d881858561045d565b33600090815260056020526040902054610351906201518090610851565b4210156103a55760405162461bcd60e51b815260206004820152601e60248201527f4d6f636b4555523a20636f6f6c646f776e206e6f742066696e6973686564000060448201526064015b60405180910390fd5b3360008181526005602052604090204290556103ca9068056bc75e2d631000006104bc565b565b6103d983838360016104f2565b505050565b6001600160a01b03838116600090815260016020908152604080832093861683529290522054600019811015610457578181101561044857604051637dc7a0d960e11b81526001600160a01b0384166004820152602481018290526044810183905260640161039c565b610457848484840360006104f2565b50505050565b6001600160a01b03831661048757604051634b637e8f60e11b81526000600482015260240161039c565b6001600160a01b0382166104b15760405163ec442f0560e01b81526000600482015260240161039c565b6103d98383836105c7565b6001600160a01b0382166104e65760405163ec442f0560e01b81526000600482015260240161039c565b610312600083836105c7565b6001600160a01b03841661051c5760405163e602df0560e01b81526000600482015260240161039c565b6001600160a01b03831661054657604051634a1406b160e11b81526000600482015260240161039c565b6001600160a01b038085166000908152600160209081526040808320938716835292905220829055801561045757826001600160a01b0316846001600160a01b03167f8c5be1e5ebec7d5bd14f71427d1e84f3dd0314c0f7b2291e5b200ac8c7c3b925846040516105b991815260200190565b60405180910390a350505050565b6001600160a01b0383166105f25780600260008282546105e79190610851565b909155506106649050565b6001600160a01b038316600090815260208190526040902054818110156106455760405163391434e360e21b81526001600160a01b0385166004820152602481018290526044810183905260640161039c565b6001600160a01b03841660009081526020819052604090209082900390555b6001600160a01b0382166106805760028054829003905561069f565b6001600160a01b03821660009081526020819052604090208054820190555b816001600160a01b0316836001600160a01b03167fddf252ad1be2c89b69c2b068fc378daa952ba7f163c4a11628f55a4df523b3ef836040516106e491815260200190565b60405180910390a3505050565b60006020808352835180602085015260005b8181101561071f57858101830151858201604001528201610703565b506000604082860101526040601f19601f8301168501019250505092915050565b80356001600160a01b038116811461075757600080fd5b919050565b6000806040838503121561076f57600080fd5b61077883610740565b946020939093013593505050565b60008060006060848603121561079b57600080fd5b6107a484610740565b92506107b260208501610740565b9150604084013590509250925092565b6000602082840312156107d457600080fd5b6107dd82610740565b9392505050565b600080604083850312156107f757600080fd5b61080083610740565b915061080e60208401610740565b90509250929050565b600181811c9082168061082b57607f821691505b60208210810361084b57634e487b7160e01b600052602260045260246000fd5b50919050565b808201808211156102de57634e487b7160e01b600052601160045260246000fdfea2646970667358221220ea176378fe5e5a48e4b102282b37d3279c50b8df9f99119f500d76b82051da3b64736f6c63430008180033",
  "linkReferences": {},
  "deployedLinkReferences": {}
}