{
  "_format": "hh-sol-artifact-1",
  "contractName": "VaraSwap",
  "sourceName": "contracts/VaraSwap.sol",
  "abi": [
    {
      "inputs": [],
      "stateMutability": "nonpayable",
      "type": "constructor"
    },
    {
      "inputs": [
        {
          "internalType": "address",
          "name": "owner",
          "type": "address"
        }
      ],
      "name": "OwnableInvalidOwner",
      "type": "error"
    },
    {
      "inputs": [
        {
          "internalType": "address",
          "name": "account",
          "type": "address"
        }
      ],
      "name": "OwnableUnauthorizedAccount",
      "type": "error"
    },
    {
      "inputs": [
        {
          "internalType": "address",
          "name": "token",
          "type": "address"
        }
      ],
      "name": "SafeERC20FailedOperation",
      "type": "error"
    },
    {
      "anonymous": false,
      "inputs": [
        {
          "indexed": true,
          "internalType": "address",
          "name": "previousOwner",
          "type": "address"
        },
        {
          "indexed": true,
          "internalType": "address",
          "name": "newOwner",
          "type": "address"
        }
      ],
      "name": "OwnershipTransferred",
      "type": "event"
    },
    {
      "anonymous": false,
      "inputs": [
        {
          "indexed": true,
          "internalType": "address",
          "name": "tokenIn",
          "type": "address"
        },
        {
          "indexed": true,
          "internalType": "address",
          "name": "tokenOut",
          "type": "address"
        },
        {
          "indexed": false,
          "internalType": "uint256",
          "name": "rate",
          "type": "uint256"
        }
      ],
      "name": "RateSet",
      "type": "event"
    },
    {
      "anonymous": false,
      "inputs": [
        {
          "indexed": true,
          "internalType": "address",
          "name": "user",
          "type": "address"
        },
        {
          "indexed": true,
          "internalType": "address",
          "name": "tokenIn",
          "type": "address"
        },
        {
          "indexed": true,
          "internalType": "address",
          "name": "tokenOut",
          "type": "address"
        },
        {
          "indexed": false,
          "internalType": "uint256",
          "name": "amountIn",
          "type": "uint256"
        },
        {
          "indexed": false,
          "internalType": "uint256",
          "name": "amountOut",
          "type": "uint256"
        }
      ],
      "name": "Swapped",
      "type": "event"
    },
    {
      "inputs": [
        {
          "internalType": "address",
          "name": "",
          "type": "address"
        },
        {
          "internalType": "address",
          "name": "",
          "type": "address"
        }
      ],
      "name": "exchangeRates",
      "outputs": [
        {
          "internalType": "uint256",
          "name": "",
          "type": "uint256"
        }
      ],
      "stateMutability": "view",
      "type": "function"
    },
    {
      "inputs": [
        {
          "internalType": "address",
          "name": "tokenIn",
          "type": "address"
        },
        {
          "internalType": "address",
          "name": "tokenOut",
          "type": "address"
        },
        {
          "internalType": "uint256",
          "name": "amountIn",
          "type": "uint256"
        }
      ],
      "name": "getAmountOut",
      "outputs": [
        {
          "internalType": "uint256",
          "name": "",
          "type": "uint256"
        }
      ],
      "stateMutability": "view",
      "type": "function"
    },
    {
      "inputs": [
        {
          "internalType": "address",
          "name": "tokenIn",
          "type": "address"
        },
        {
          "internalType": "address",
          "name": "tokenOut",
          "type": "address"
        }
      ],
      "name": "getRate",
      "outputs": [
        {
          "internalType": "uint256",
          "name": "",
          "type": "uint256"
        }
      ],
      "stateMutability": "view",
      "type": "function"
    },
    {
      "inputs": [],
      "name": "owner",
      "outputs": [
        {
          "internalType": "address",
          "name": "",
          "type": "address"
        }
      ],
      "stateMutability": "view",
      "type": "function"
    },
    {
      "inputs": [],
      "name": "renounceOwnership",
      "outputs": [],
      "stateMutability": "nonpayable",
      "type": "function"
    },
    {
      "inputs": [
        {
          "internalType": "address",
          "name": "tokenIn",
          "type": "address"
        },
        {
          "internalType": "address",
          "name": "tokenOut",
          "type": "address"
        },
        {
          "internalType": "uint256",
          "name": "rate",
          "type": "uint256"
        }
      ],
      "name": "setRate",
      "outputs": [],
      "stateMutability": "nonpayable",
      "type": "function"
    },
    {
      "inputs": [
        {
          "internalType": "address",
          "name": "tokenIn",
          "type": "address"
        },
        {
          "internalType": "address",
          "name": "tokenOut",
          "type": "address"
        },
        {
          "internalType": "uint256",
          "name": "amountIn",
          "type": "uint256"
        }
      ],
      "name": "swap",
      "outputs": [],
      "stateMutability": "nonpayable",
      "type": "function"
    },
    {
      "inputs": [
        {
          "internalType": "address",
          "name": "newOwner",
          "type": "address"
        }
      ],
      "name": "transferOwnership",
      "outputs": [],
      "stateMutability": "nonpayable",
      "type": "function"
    }
  ],
  "bytecode": "0x608060405234801561001057600080fd5b50338061003757604051631e4fbdf760e01b81526000600482015260240160405180910390fd5b61004081610046565b50610096565b600080546001600160a01b038381166001600160a01b0319831681178455604051919092169283917f8be0079c531659141344cd1fd0a4f28419497f9722a3daafe3b4186f6b6457e09190a35050565b610984806100a56000396000f3fe608060405234801561001057600080fd5b50600436106100885760003560e01c8063715018a61161005b578063715018a6146101065780638da5cb5b1461010e578063df791e5014610129578063f2fde38b1461013c57600080fd5b8063379b87ea1461008d5780634aa06652146100b3578063503fa44f146100c65780635911fb9a146100f1575b600080fd5b6100a061009b36600461073f565b61014f565b6040519081526020015b60405180910390f35b6100a06100c1366004610772565b61017c565b6100a06100d436600461073f565b600160209081526000928352604080842090915290825290205481565b6101046100ff366004610772565b6103b8565b005b610104610421565b6000546040516001600160a01b0390911681526020016100aa565b610104610137366004610772565b610435565b61010461014a3660046107ae565b61051a565b6001600160a01b038083166000908152600160209081526040808320938516835292905220545b92915050565b6001600160a01b038084166000908152600160209081526040808320938616835292905290812054806101f65760405162461bcd60e51b815260206004820152601a60248201527f56617261537761703a20556e737570706f72746564207061697200000000000060448201526064015b60405180910390fd5b6000856001600160a01b031663313ce5676040518163ffffffff1660e01b8152600401602060405180830381865afa158015610236573d6000803e3d6000fd5b505050506040513d601f19601f8201168201806040525081019061025a91906107d0565b90506000856001600160a01b031663313ce5676040518163ffffffff1660e01b8152600401602060405180830381865afa15801561029c573d6000803e3d6000fd5b505050506040513d601f19601f820116820180604052508101906102c091906107d0565b9050600060128360ff1610156102f7576102db836012610809565b6102e690600a610906565b6102f09087610915565b9050610326565b60128360ff1611156103235761030e601284610809565b61031990600a610906565b6102f0908761092c565b50845b6000670de0b6b3a764000061033b8684610915565b610345919061092c565b9050600060128460ff16101561037c57610360846012610809565b61036b90600a610906565b610375908361092c565b90506103ab565b60128460ff1611156103a857610393601285610809565b61039e90600a610906565b6103759083610915565b50805b9998505050505050505050565b6103c0610558565b6001600160a01b0383811660008181526001602090815260408083209487168084529482529182902085905590518481527f8133797ea68fdaae246d50013e5651af0c57647463aa0e0a6c9ed0ca79039067910160405180910390a3505050565b610429610558565b6104336000610585565b565b600061044284848461017c565b9050600081116104a05760405162461bcd60e51b8152602060048201526024808201527f56617261537761703a20496e73756666696369656e74206f757470757420616d6044820152631bdd5b9d60e21b60648201526084016101ed565b6104b56001600160a01b0385163330856105d5565b6104c96001600160a01b0384163383610611565b60408051838152602081018390526001600160a01b03808616929087169133917f6782190c91d4a7e8ad2a867deed6ec0a970cab8ff137ae2bd4abd92b3810f4d3910160405180910390a450505050565b610522610558565b6001600160a01b03811661054c57604051631e4fbdf760e01b8152600060048201526024016101ed565b61055581610585565b50565b6000546001600160a01b031633146104335760405163118cdaa760e01b81523360048201526024016101ed565b600080546001600160a01b038381166001600160a01b0319831681178455604051919092169283917f8be0079c531659141344cd1fd0a4f28419497f9722a3daafe3b4186f6b6457e09190a35050565b6105e384848484600161064b565b61060b57604051635274afe760e01b81526001600160a01b03851660048201526024016101ed565b50505050565b61061e83838360016106bd565b61064657604051635274afe760e01b81526001600160a01b03841660048201526024016101ed565b505050565b6040516323b872dd60e01b60008181526001600160a01b038781166004528616602452604485905291602083606481808c5af1925060016000511483166106ab57838315161561069e573d6000823e3d81fd5b6000883b113d1516831692505b60405250600060605295945050505050565b60405163a9059cbb60e01b60008181526001600160a01b038616600452602485905291602083604481808b5af19250600160005114831661071757838315161561070a573d6000823e3d81fd5b6000873b113d1516831692505b60405250949350505050565b80356001600160a01b038116811461073a57600080fd5b919050565b6000806040838503121561075257600080fd5b61075b83610723565b915061076960208401610723565b90509250929050565b60008060006060848603121561078757600080fd5b61079084610723565b925061079e60208501610723565b9150604084013590509250925092565b6000602082840312156107c057600080fd5b6107c982610723565b9392505050565b6000602082840312156107e257600080fd5b815160ff811681146107c957600080fd5b634e487b7160e01b600052601160045260246000fd5b60ff8281168282160390811115610176576101766107f3565b600181815b8085111561085d578160001904821115610843576108436107f3565b8085161561085057918102915b93841c9390800290610827565b509250929050565b60008261087457506001610176565b8161088157506000610176565b816001811461089757600281146108a1576108bd565b6001915050610176565b60ff8411156108b2576108b26107f3565b50506001821b610176565b5060208310610133831016604e8410600b84101617156108e0575081810a610176565b6108ea8383610822565b80600019048211156108fe576108fe6107f3565b029392505050565b60006107c960ff841683610865565b8082028115828204841417610176576101766107f3565b60008261094957634e487b7160e01b600052601260045260246000fd5b50049056fea2646970667358221220ec7fb7b622111696f6dbb0fbf2ef4fad3751fb22f36142d2d326ceb8da4de7bc64736f6c63430008180033",
  "linkReferences": {},
  "deployedLinkReferences": {}
}